{
  "address": "0x014243646aa095e8B6688FB5BA64F6578c9297d2",
  "abi": [
    {
      "inputs": [
        {
          "internalType": "address",
          "name": "_lxUSD",
          "type": "address"
        },
        {
          "internalType": "address",
          "name": "_oracle",
          "type": "address"
        },
        {
          "internalType": "address",
          "name": "_uniswap",
          "type": "address"
        }
      ],
      "stateMutability": "nonpayable",
      "type": "constructor"
    },
    {
      "anonymous": false,
      "inputs": [
        {
          "indexed": true,
          "internalType": "bytes32",
          "name": "role",
          "type": "bytes32"
        },
        {
          "indexed": true,
          "internalType": "bytes32",
          "name": "previousAdminRole",
          "type": "bytes32"
        },
        {
          "indexed": true,
          "internalType": "bytes32",
          "name": "newAdminRole",
          "type": "bytes32"
        }
      ],
      "name": "RoleAdminChanged",
      "type": "event"
    },
    {
      "anonymous": false,
      "inputs": [
        {
          "indexed": true,
          "internalType": "bytes32",
          "name": "role",
          "type": "bytes32"
        },
        {
          "indexed": true,
          "internalType": "address",
          "name": "account",
          "type": "address"
        },
        {
          "indexed": true,
          "internalType": "address",
          "name": "sender",
          "type": "address"
        }
      ],
      "name": "RoleGranted",
      "type": "event"
    },
    {
      "anonymous": false,
      "inputs": [
        {
          "indexed": true,
          "internalType": "bytes32",
          "name": "role",
          "type": "bytes32"
        },
        {
          "indexed": true,
          "internalType": "address",
          "name": "account",
          "type": "address"
        },
        {
          "indexed": true,
          "internalType": "address",
          "name": "sender",
          "type": "address"
        }
      ],
      "name": "RoleRevoked",
      "type": "event"
    },
    {
      "inputs": [],
      "name": "ADMIN",
      "outputs": [
        {
          "internalType": "bytes32",
          "name": "",
          "type": "bytes32"
        }
      ],
      "stateMutability": "view",
      "type": "function"
    },
    {
      "inputs": [],
      "name": "DEFAULT_ADMIN_ROLE",
      "outputs": [
        {
          "internalType": "bytes32",
          "name": "",
          "type": "bytes32"
        }
      ],
      "stateMutability": "view",
      "type": "function"
    },
    {
      "inputs": [
        {
          "internalType": "address",
          "name": "token",
          "type": "address"
        },
        {
          "internalType": "uint256",
          "name": "amount",
          "type": "uint256"
        },
        {
          "internalType": "enum LXAMM.Dex",
          "name": "dex",
          "type": "uint8"
        }
      ],
      "name": "deposit",
      "outputs": [],
      "stateMutability": "nonpayable",
      "type": "function"
    },
    {
      "inputs": [
        {
          "internalType": "address",
          "name": "_token",
          "type": "address"
        }
      ],
      "name": "getDepositedTokenAddress",
      "outputs": [
        {
          "internalType": "address",
          "name": "",
          "type": "address"
        }
      ],
      "stateMutability": "view",
      "type": "function"
    },
    {
      "inputs": [
        {
          "internalType": "bytes32",
          "name": "role",
          "type": "bytes32"
        }
      ],
      "name": "getRoleAdmin",
      "outputs": [
        {
          "internalType": "bytes32",
          "name": "",
          "type": "bytes32"
        }
      ],
      "stateMutability": "view",
      "type": "function"
    },
    {
      "inputs": [
        {
          "internalType": "bytes32",
          "name": "role",
          "type": "bytes32"
        },
        {
          "internalType": "address",
          "name": "account",
          "type": "address"
        }
      ],
      "name": "grantRole",
      "outputs": [],
      "stateMutability": "nonpayable",
      "type": "function"
    },
    {
      "inputs": [
        {
          "internalType": "bytes32",
          "name": "role",
          "type": "bytes32"
        },
        {
          "internalType": "address",
          "name": "account",
          "type": "address"
        }
      ],
      "name": "hasRole",
      "outputs": [
        {
          "internalType": "bool",
          "name": "",
          "type": "bool"
        }
      ],
      "stateMutability": "view",
      "type": "function"
    },
    {
      "inputs": [],
      "name": "lxUSD",
      "outputs": [
        {
          "internalType": "address",
          "name": "",
          "type": "address"
        }
      ],
      "stateMutability": "view",
      "type": "function"
    },
    {
      "inputs": [],
      "name": "oracle",
      "outputs": [
        {
          "internalType": "address",
          "name": "",
          "type": "address"
        }
      ],
      "stateMutability": "view",
      "type": "function"
    },
    {
      "inputs": [
        {
          "internalType": "bytes32",
          "name": "role",
          "type": "bytes32"
        },
        {
          "internalType": "address",
          "name": "account",
          "type": "address"
        }
      ],
      "name": "renounceRole",
      "outputs": [],
      "stateMutability": "nonpayable",
      "type": "function"
    },
    {
      "inputs": [
        {
          "internalType": "bytes32",
          "name": "role",
          "type": "bytes32"
        },
        {
          "internalType": "address",
          "name": "account",
          "type": "address"
        }
      ],
      "name": "revokeRole",
      "outputs": [],
      "stateMutability": "nonpayable",
      "type": "function"
    },
    {
      "inputs": [
        {
          "internalType": "bytes4",
          "name": "interfaceId",
          "type": "bytes4"
        }
      ],
      "name": "supportsInterface",
      "outputs": [
        {
          "internalType": "bool",
          "name": "",
          "type": "bool"
        }
      ],
      "stateMutability": "view",
      "type": "function"
    },
    {
      "inputs": [],
      "name": "uniswap",
      "outputs": [
        {
          "internalType": "address",
          "name": "",
          "type": "address"
        }
      ],
      "stateMutability": "view",
      "type": "function"
    },
    {
      "inputs": [
        {
          "internalType": "address",
          "name": "token",
          "type": "address"
        },
        {
          "internalType": "uint256",
          "name": "liquidity",
          "type": "uint256"
        },
        {
          "internalType": "enum LXAMM.Dex",
          "name": "dex",
          "type": "uint8"
        }
      ],
      "name": "withdraw",
      "outputs": [],
      "stateMutability": "nonpayable",
      "type": "function"
    }
  ],
  "transactionHash": "0xf4ebf047dd19e18a670d6abc0789667af8db7d5eba8133922e1422c460e4c690",
  "args": [
    "0x27f32317432447f30C03C405f8fBBB19DfBccDe9",
    "0x4FA2fb6e31AE54bE754797a47dF9C303eaF810B4",
    "0x7a250d5630B4cF539739dF2C5dAcb4c659F2488D"
  ],
  "solcInputHash": "3627972b56979e9c1fbf3faf402840d2",
  "bytecode": "0x60e06040523480156200001157600080fd5b5060405162002cd938038062002cd9833981016040819052620000349162000155565b620000607fdf8b4c520ffe197c5343c6f5aec59570151ef9a492f2c624fd45ddde6135ec423362000088565b6001600160601b0319606093841b811660805291831b821660a05290911b1660c0526200019f565b62000094828262000098565b5050565b6000828152602081815260408083206001600160a01b038516845290915290205460ff1662000094576000828152602081815260408083206001600160a01b03851684529091529020805460ff19166001179055620000f43390565b6001600160a01b0316816001600160a01b0316837f2f8788117e7eff1d82e926ec794901d17c78024a50270940304540a733656f0d60405160405180910390a45050565b80516001600160a01b03811681146200015057600080fd5b919050565b6000806000606084860312156200016b57600080fd5b620001768462000138565b9250620001866020850162000138565b9150620001966040850162000138565b90509250925092565b60805160601c60a05160601c60c05160601c612aa6620002336000396000818161016901528181610cd501528181610d6c01528181610e0d015281816110740152818161111f01526111bb0152600081816102410152818161043301526108770152600081816102190152818161037101528181610594015281816106920152818161094c0152610a940152612aa66000f3fe60806040523480156200001157600080fd5b5060043610620000fd5760003560e01c80636d1a23951162000097578063a217fddf116200006e578063a217fddf146200027a578063a40caa8e1462000283578063d547741f14620002b2578063f19ed6be14620002c957600080fd5b80636d1a239514620002135780637dc0d1d0146200023b57806391d14854146200026357600080fd5b80632892a97711620000d85780632892a97714620001a45780632a0acc6a14620001bd5780632f2ff15d14620001e557806336568abe14620001fc57600080fd5b806301ffc9a71462000102578063248a9ca3146200012e5780632681f7e41462000163575b600080fd5b62000119620001133660046200157e565b620002e0565b60405190151581526020015b60405180910390f35b620001546200013f36600462001531565b60009081526020819052604090206001015490565b60405190815260200162000125565b6200018b7f000000000000000000000000000000000000000000000000000000000000000081565b6040516001600160a01b03909116815260200162000125565b620001bb620001b5366004620014c3565b62000318565b005b620001547fdf8b4c520ffe197c5343c6f5aec59570151ef9a492f2c624fd45ddde6135ec4281565b620001bb620001f63660046200154b565b62000751565b620001bb6200020d3660046200154b565b62000780565b6200018b7f000000000000000000000000000000000000000000000000000000000000000081565b6200018b7f000000000000000000000000000000000000000000000000000000000000000081565b62000119620002743660046200154b565b62000802565b62000154600081565b6200018b6200029436600462001483565b6001600160a01b039081166000908152600160205260409020541690565b620001bb620002c33660046200154b565b6200082b565b620001bb620002da366004620014c3565b62000855565b60006001600160e01b03198216637965db0b60e01b14806200031257506301ffc9a760e01b6001600160e01b03198316145b92915050565b600080808360028111156200033157620003316200189c565b505060018360028111156200034a576200034a6200189c565b505060028360028111156200036357620003636200189c565b14156200039d5762000397857f00000000000000000000000000000000000000000000000000000000000000008662000ca7565b90925090505b6001600160a01b0385811660009081526001602052604090819020549051632770a7eb60e21b815233600482015260248101879052911690639dc29fac90604401600060405180830381600087803b158015620003f957600080fd5b505af11580156200040e573d6000803e3d6000fd5b5050604051635708447d60e01b81526001600160a01b038881166004830152600093507f0000000000000000000000000000000000000000000000000000000000000000169150635708447d9060240160206040518083038186803b1580156200047757600080fd5b505afa1580156200048c573d6000803e3d6000fd5b505050506040513d601f19601f82011682018060405250810190620004b2919062001663565b620004c3906402540be400620017fd565b90506000670de0b6b3a7640000620004dc8584620017fd565b620004e89190620017da565b905060008211620005505760405162461bcd60e51b815260206004820152602760248201527f4c78556e69737761703a206d61726b65742070726963652063616e6e6f74206260448201526632903d32b9379760c91b60648201526084015b60405180910390fd5b82811115620005785780620005668486620017fd565b620005729190620017da565b93508290505b604051632770a7eb60e21b8152306004820152602481018290527f00000000000000000000000000000000000000000000000000000000000000006001600160a01b031690639dc29fac90604401600060405180830381600087803b158015620005e157600080fd5b505af1158015620005f6573d6000803e3d6000fd5b505060405163a9059cbb60e01b8152336004820152602481018790526001600160a01b038a16925063a9059cbb9150604401602060405180830381600087803b1580156200064357600080fd5b505af115801562000658573d6000803e3d6000fd5b505050506040513d601f19601f820116820180604052508101906200067e91906200150d565b508281101562000748576001600160a01b037f00000000000000000000000000000000000000000000000000000000000000001663a9059cbb33620006c484876200181f565b6040516001600160e01b031960e085901b1681526001600160a01b0390921660048301526024820152604401602060405180830381600087803b1580156200070b57600080fd5b505af115801562000720573d6000803e3d6000fd5b505050506040513d601f19601f820116820180604052508101906200074691906200150d565b505b50505050505050565b6000828152602081905260409020600101546200076f813362000efe565b6200077b838362000f6d565b505050565b6001600160a01b0381163314620007f25760405162461bcd60e51b815260206004820152602f60248201527f416363657373436f6e74726f6c3a2063616e206f6e6c792072656e6f756e636560448201526e103937b632b9903337b91039b2b63360891b606482015260840162000547565b620007fe828262000ff5565b5050565b6000918252602082815260408084206001600160a01b0393909316845291905290205460ff1690565b60008281526020819052604090206001015462000849813362000efe565b6200077b838362000ff5565b604051635708447d60e01b81526001600160a01b0384811660048301526000917f000000000000000000000000000000000000000000000000000000000000000090911690635708447d9060240160206040518083038186803b158015620008bc57600080fd5b505afa158015620008d1573d6000803e3d6000fd5b505050506040513d601f19601f82011682018060405250810190620008f7919062001663565b62000908906402540be400620017fd565b90506000670de0b6b3a7640000620009218584620017fd565b6200092d9190620017da565b6040516340c10f1960e01b8152306004820152602481018290529091507f00000000000000000000000000000000000000000000000000000000000000006001600160a01b0316906340c10f1990604401600060405180830381600087803b1580156200099957600080fd5b505af1158015620009ae573d6000803e3d6000fd5b50506040516323b872dd60e01b8152336004820152306024820152604481018790526001600160a01b03881692506323b872dd9150606401602060405180830381600087803b15801562000a0157600080fd5b505af115801562000a16573d6000803e3d6000fd5b505050506040513d601f19601f8201168201806040525081019062000a3c91906200150d565b5060008084600281111562000a555762000a556200189c565b5050600184600281111562000a6e5762000a6e6200189c565b5050600284600281111562000a875762000a876200189c565b141562000abf5762000abc7f00000000000000000000000000000000000000000000000000000000000000008388886200105d565b90505b6001600160a01b03808716600090815260016020526040902054168062000c3c57866001600160a01b03166306fdde036040518163ffffffff1660e01b815260040160006040518083038186803b15801562000b1a57600080fd5b505afa15801562000b2f573d6000803e3d6000fd5b505050506040513d6000823e601f3d908101601f1916820160405262000b599190810190620015aa565b876001600160a01b03166395d89b416040518163ffffffff1660e01b815260040160006040518083038186803b15801562000b9357600080fd5b505afa15801562000ba8573d6000803e3d6000fd5b505050506040513d6000823e601f3d908101601f1916820160405262000bd29190810190620015aa565b60405162000be09062001475565b62000bed9291906200178d565b604051809103906000f08015801562000c0a573d6000803e3d6000fd5b506001600160a01b03888116600090815260016020526040902080546001600160a01b03191691831691909117905590505b6040516340c10f1960e01b8152336004820152602481018390526001600160a01b038216906340c10f1990604401600060405180830381600087803b15801562000c8557600080fd5b505af115801562000c9a573d6000803e3d6000fd5b5050505050505050505050565b60405163e6a4390560e01b81526001600160a01b0384811660048301528381166024830152600091829182917f00000000000000000000000000000000000000000000000000000000000000009091169063e6a439059060440160206040518083038186803b15801562000d1a57600080fd5b505afa15801562000d2f573d6000803e3d6000fd5b505050506040513d601f19601f8201168201806040525081019062000d559190620014a3565b60405163095ea7b360e01b81526001600160a01b037f000000000000000000000000000000000000000000000000000000000000000081166004830152602482018790529192509082169063095ea7b390604401602060405180830381600087803b15801562000dc457600080fd5b505af115801562000dd9573d6000803e3d6000fd5b505050506040513d601f19601f8201168201806040525081019062000dff91906200150d565b506000806001600160a01b037f00000000000000000000000000000000000000000000000000000000000000001663baa2abde89898985803062000e4642610708620017bf565b60405160e089901b6001600160e01b03191681526001600160a01b039788166004820152958716602487015260448601949094526064850192909252608484015290921660a482015260c481019190915260e4016040805180830381600087803b15801562000eb457600080fd5b505af115801562000ec9573d6000803e3d6000fd5b505050506040513d601f19601f8201168201806040525081019062000eef91906200167d565b90999098509650505050505050565b62000f0a828262000802565b620007fe5762000f25816001600160a01b03166014620012b4565b62000f32836020620012b4565b60405160200162000f45929190620016ff565b60408051601f198184030181529082905262461bcd60e51b8252620005479160040162001778565b62000f79828262000802565b620007fe576000828152602081815260408083206001600160a01b03851684529091529020805460ff1916600117905562000fb13390565b6001600160a01b0316816001600160a01b0316837f2f8788117e7eff1d82e926ec794901d17c78024a50270940304540a733656f0d60405160405180910390a45050565b62001001828262000802565b15620007fe576000828152602081815260408083206001600160a01b0385168085529252808320805460ff1916905551339285917ff6391f5c32d9c69d2a47ea670b442974b53935d1edc7fd64eb21e047a839171b9190a45050565b60405163095ea7b360e01b81526001600160a01b037f000000000000000000000000000000000000000000000000000000000000000081166004830152602482018390526000919084169063095ea7b390604401602060405180830381600087803b158015620010cc57600080fd5b505af1158015620010e1573d6000803e3d6000fd5b505050506040513d601f19601f820116820180604052508101906200110791906200150d565b5060405163095ea7b360e01b81526001600160a01b037f0000000000000000000000000000000000000000000000000000000000000000811660048301526024820186905286169063095ea7b390604401602060405180830381600087803b1580156200117357600080fd5b505af115801562001188573d6000803e3d6000fd5b505050506040513d601f19601f82011682018060405250810190620011ae91906200150d565b5060006001600160a01b037f00000000000000000000000000000000000000000000000000000000000000001663e8e3370087868887818130620011f542610708620017bf565b60405160e08a901b6001600160e01b03191681526001600160a01b039889166004820152968816602488015260448701959095526064860193909352608485019190915260a484015290921660c482015260e481019190915261010401606060405180830381600087803b1580156200126d57600080fd5b505af115801562001282573d6000803e3d6000fd5b505050506040513d601f19601f82011682018060405250810190620012a89190620016a2565b98975050505050505050565b60606000620012c5836002620017fd565b620012d2906002620017bf565b67ffffffffffffffff811115620012ed57620012ed620018c8565b6040519080825280601f01601f19166020018201604052801562001318576020820181803683370190505b509050600360fc1b81600081518110620013365762001336620018b2565b60200101906001600160f81b031916908160001a905350600f60fb1b81600181518110620013685762001368620018b2565b60200101906001600160f81b031916908160001a90535060006200138e846002620017fd565b6200139b906001620017bf565b90505b60018111156200141d576f181899199a1a9b1b9c1cb0b131b232b360811b85600f1660108110620013d357620013d3620018b2565b1a60f81b828281518110620013ec57620013ec620018b2565b60200101906001600160f81b031916908160001a90535060049490941c9362001415816200186c565b90506200139e565b5083156200146e5760405162461bcd60e51b815260206004820181905260248201527f537472696e67733a20686578206c656e67746820696e73756666696369656e74604482015260640162000547565b9392505050565b61117980620018f883390190565b6000602082840312156200149657600080fd5b81356200146e81620018de565b600060208284031215620014b657600080fd5b81516200146e81620018de565b600080600060608486031215620014d957600080fd5b8335620014e681620018de565b9250602084013591506040840135600381106200150257600080fd5b809150509250925092565b6000602082840312156200152057600080fd5b815180151581146200146e57600080fd5b6000602082840312156200154457600080fd5b5035919050565b600080604083850312156200155f57600080fd5b8235915060208301356200157381620018de565b809150509250929050565b6000602082840312156200159157600080fd5b81356001600160e01b0319811681146200146e57600080fd5b600060208284031215620015bd57600080fd5b815167ffffffffffffffff80821115620015d657600080fd5b818401915084601f830112620015eb57600080fd5b815181811115620016005762001600620018c8565b604051601f8201601f19908116603f011681019083821181831017156200162b576200162b620018c8565b816040528281528760208487010111156200164557600080fd5b6200165883602083016020880162001839565b979650505050505050565b6000602082840312156200167657600080fd5b5051919050565b600080604083850312156200169157600080fd5b505080516020909101519092909150565b600080600060608486031215620016b857600080fd5b8351925060208401519150604084015190509250925092565b60008151808452620016eb81602086016020860162001839565b601f01601f19169290920160200192915050565b7f416363657373436f6e74726f6c3a206163636f756e74200000000000000000008152600083516200173981601785016020880162001839565b7001034b99036b4b9b9b4b733903937b6329607d1b60179184019182015283516200176c81602884016020880162001839565b01602801949350505050565b6020815260006200146e6020830184620016d1565b604081526000620017a26040830185620016d1565b8281036020840152620017b68185620016d1565b95945050505050565b60008219821115620017d557620017d562001886565b500190565b600082620017f857634e487b7160e01b600052601260045260246000fd5b500490565b60008160001904831182151516156200181a576200181a62001886565b500290565b60008282101562001834576200183462001886565b500390565b60005b83811015620018565781810151838201526020016200183c565b8381111562001866576000848401525b50505050565b6000816200187e576200187e62001886565b506000190190565b634e487b7160e01b600052601160045260246000fd5b634e487b7160e01b600052602160045260246000fd5b634e487b7160e01b600052603260045260246000fd5b634e487b7160e01b600052604160045260246000fd5b6001600160a01b0381168114620018f457600080fd5b5056fe60806040523480156200001157600080fd5b50604051620011793803806200117983398101604081905262000034916200024a565b81604051602001620000479190620002b4565b60405160208183030381529060405281604051602001620000699190620002e3565b60408051601f1981840301815291905281516200008e90600390602085019062000113565b508051620000a490600490602084019062000113565b5050506000620000b96200010f60201b60201c565b600580546001600160a01b0319166001600160a01b038316908117909155604051919250906000907f8be0079c531659141344cd1fd0a4f28419497f9722a3daafe3b4186f6b6457e0908290a350505062000395565b3390565b828054620001219062000342565b90600052602060002090601f01602090048101928262000145576000855562000190565b82601f106200016057805160ff191683800117855562000190565b8280016001018555821562000190579182015b828111156200019057825182559160200191906001019062000173565b506200019e929150620001a2565b5090565b5b808211156200019e5760008155600101620001a3565b600082601f830112620001cb57600080fd5b81516001600160401b0380821115620001e857620001e86200037f565b604051601f8301601f19908116603f011681019082821181831017156200021357620002136200037f565b816040528381528660208588010111156200022d57600080fd5b620002408460208301602089016200030f565b9695505050505050565b600080604083850312156200025e57600080fd5b82516001600160401b03808211156200027657600080fd5b6200028486838701620001b9565b935060208501519150808211156200029b57600080fd5b50620002aa85828601620001b9565b9150509250929050565b640363c2628160dd1b815260008251620002d68160058501602087016200030f565b9190910160050192915050565b610d8f60f31b815260008251620003028160028501602087016200030f565b9190910160020192915050565b60005b838110156200032c57818101518382015260200162000312565b838111156200033c576000848401525b50505050565b600181811c908216806200035757607f821691505b602082108114156200037957634e487b7160e01b600052602260045260246000fd5b50919050565b634e487b7160e01b600052604160045260246000fd5b610dd480620003a56000396000f3fe608060405234801561001057600080fd5b50600436106101005760003560e01c8063715018a611610097578063a457c2d711610066578063a457c2d714610209578063a9059cbb1461021c578063dd62ed3e1461022f578063f2fde38b1461026857600080fd5b8063715018a6146101cb5780638da5cb5b146101d357806395d89b41146101ee5780639dc29fac146101f657600080fd5b8063313ce567116100d3578063313ce5671461016b578063395093511461017a57806340c10f191461018d57806370a08231146101a257600080fd5b806306fdde0314610105578063095ea7b31461012357806318160ddd1461014657806323b872dd14610158575b600080fd5b61010d61027b565b60405161011a9190610c94565b60405180910390f35b610136610131366004610c6a565b61030d565b604051901515815260200161011a565b6002545b60405190815260200161011a565b610136610166366004610c2e565b610323565b6040516012815260200161011a565b610136610188366004610c6a565b6103d9565b6101a061019b366004610c6a565b610410565b005b61014a6101b0366004610bd9565b6001600160a01b031660009081526020819052604090205490565b6101a0610448565b6005546040516001600160a01b03909116815260200161011a565b61010d6104bc565b6101a0610204366004610c6a565b6104cb565b610136610217366004610c6a565b6104ff565b61013661022a366004610c6a565b61059a565b61014a61023d366004610bfb565b6001600160a01b03918216600090815260016020908152604080832093909416825291909152205490565b6101a0610276366004610bd9565b6105a7565b60606003805461028a90610d4d565b80601f01602080910402602001604051908101604052809291908181526020018280546102b690610d4d565b80156103035780601f106102d857610100808354040283529160200191610303565b820191906000526020600020905b8154815290600101906020018083116102e657829003601f168201915b5050505050905090565b600061031a338484610692565b50600192915050565b60006103308484846107b7565b6001600160a01b0384166000908152600160209081526040808320338452909152902054828110156103ba5760405162461bcd60e51b815260206004820152602860248201527f45524332303a207472616e7366657220616d6f756e74206578636565647320616044820152676c6c6f77616e636560c01b60648201526084015b60405180910390fd5b6103ce85336103c98685610d36565b610692565b506001949350505050565b3360008181526001602090815260408083206001600160a01b0387168452909152812054909161031a9185906103c9908690610d1e565b6005546001600160a01b0316331461043a5760405162461bcd60e51b81526004016103b190610ce9565b610444828261098f565b5050565b6005546001600160a01b031633146104725760405162461bcd60e51b81526004016103b190610ce9565b6005546040516000916001600160a01b0316907f8be0079c531659141344cd1fd0a4f28419497f9722a3daafe3b4186f6b6457e0908390a3600580546001600160a01b0319169055565b60606004805461028a90610d4d565b6005546001600160a01b031633146104f55760405162461bcd60e51b81526004016103b190610ce9565b6104448282610a6e565b3360009081526001602090815260408083206001600160a01b0386168452909152812054828110156105815760405162461bcd60e51b815260206004820152602560248201527f45524332303a2064656372656173656420616c6c6f77616e63652062656c6f77604482015264207a65726f60d81b60648201526084016103b1565b61059033856103c98685610d36565b5060019392505050565b600061031a3384846107b7565b6005546001600160a01b031633146105d15760405162461bcd60e51b81526004016103b190610ce9565b6001600160a01b0381166106365760405162461bcd60e51b815260206004820152602660248201527f4f776e61626c653a206e6577206f776e657220697320746865207a65726f206160448201526564647265737360d01b60648201526084016103b1565b6005546040516001600160a01b038084169216907f8be0079c531659141344cd1fd0a4f28419497f9722a3daafe3b4186f6b6457e090600090a3600580546001600160a01b0319166001600160a01b0392909216919091179055565b6001600160a01b0383166106f45760405162461bcd60e51b8152602060048201526024808201527f45524332303a20617070726f76652066726f6d20746865207a65726f206164646044820152637265737360e01b60648201526084016103b1565b6001600160a01b0382166107555760405162461bcd60e51b815260206004820152602260248201527f45524332303a20617070726f766520746f20746865207a65726f206164647265604482015261737360f01b60648201526084016103b1565b6001600160a01b0383811660008181526001602090815260408083209487168084529482529182902085905590518481527f8c5be1e5ebec7d5bd14f71427d1e84f3dd0314c0f7b2291e5b200ac8c7c3b92591015b60405180910390a3505050565b6001600160a01b03831661081b5760405162461bcd60e51b815260206004820152602560248201527f45524332303a207472616e736665722066726f6d20746865207a65726f206164604482015264647265737360d81b60648201526084016103b1565b6001600160a01b03821661087d5760405162461bcd60e51b815260206004820152602360248201527f45524332303a207472616e7366657220746f20746865207a65726f206164647260448201526265737360e81b60648201526084016103b1565b6001600160a01b038316600090815260208190526040902054818110156108f55760405162461bcd60e51b815260206004820152602660248201527f45524332303a207472616e7366657220616d6f756e7420657863656564732062604482015265616c616e636560d01b60648201526084016103b1565b6108ff8282610d36565b6001600160a01b038086166000908152602081905260408082209390935590851681529081208054849290610935908490610d1e565b92505081905550826001600160a01b0316846001600160a01b03167fddf252ad1be2c89b69c2b068fc378daa952ba7f163c4a11628f55a4df523b3ef8460405161098191815260200190565b60405180910390a350505050565b6001600160a01b0382166109e55760405162461bcd60e51b815260206004820152601f60248201527f45524332303a206d696e7420746f20746865207a65726f20616464726573730060448201526064016103b1565b80600260008282546109f79190610d1e565b90915550506001600160a01b03821660009081526020819052604081208054839290610a24908490610d1e565b90915550506040518181526001600160a01b038316906000907fddf252ad1be2c89b69c2b068fc378daa952ba7f163c4a11628f55a4df523b3ef9060200160405180910390a35050565b6001600160a01b038216610ace5760405162461bcd60e51b815260206004820152602160248201527f45524332303a206275726e2066726f6d20746865207a65726f206164647265736044820152607360f81b60648201526084016103b1565b6001600160a01b03821660009081526020819052604090205481811015610b425760405162461bcd60e51b815260206004820152602260248201527f45524332303a206275726e20616d6f756e7420657863656564732062616c616e604482015261636560f01b60648201526084016103b1565b610b4c8282610d36565b6001600160a01b03841660009081526020819052604081209190915560028054849290610b7a908490610d36565b90915550506040518281526000906001600160a01b038516907fddf252ad1be2c89b69c2b068fc378daa952ba7f163c4a11628f55a4df523b3ef906020016107aa565b80356001600160a01b0381168114610bd457600080fd5b919050565b600060208284031215610beb57600080fd5b610bf482610bbd565b9392505050565b60008060408385031215610c0e57600080fd5b610c1783610bbd565b9150610c2560208401610bbd565b90509250929050565b600080600060608486031215610c4357600080fd5b610c4c84610bbd565b9250610c5a60208501610bbd565b9150604084013590509250925092565b60008060408385031215610c7d57600080fd5b610c8683610bbd565b946020939093013593505050565b600060208083528351808285015260005b81811015610cc157858101830151858201604001528201610ca5565b81811115610cd3576000604083870101525b50601f01601f1916929092016040019392505050565b6020808252818101527f4f776e61626c653a2063616c6c6572206973206e6f7420746865206f776e6572604082015260600190565b60008219821115610d3157610d31610d88565b500190565b600082821015610d4857610d48610d88565b500390565b600181811c90821680610d6157607f821691505b60208210811415610d8257634e487b7160e01b600052602260045260246000fd5b50919050565b634e487b7160e01b600052601160045260246000fdfea26469706673582212203ce1d55fd3cea0dd40531402d5f95834053b13689c034767fefb82d5c270fe3f64736f6c63430008060033a2646970667358221220f940c6059b12a71f8251bb5882d619246c2771f27f9c60881909d07cfc83534464736f6c63430008060033",
  "devdoc": {
    "details": "Contract for the LXAMM (Automated Market Maker). This AMM creates decentralized trading pools on different DEXs. Liquidity is provided with one token only. Tokens can be deposited and withdrawn from this contract. Governance has control over this token. More details about this AMM contact can be found in the README file.*",
    "kind": "dev",
    "methods": {
      "getRoleAdmin(bytes32)": {
        "details": "Returns the admin role that controls `role`. See {grantRole} and {revokeRole}. To change a role's admin, use {_setRoleAdmin}."
      },
      "grantRole(bytes32,address)": {
        "details": "Grants `role` to `account`. If `account` had not been already granted `role`, emits a {RoleGranted} event. Requirements: - the caller must have ``role``'s admin role."
      },
      "hasRole(bytes32,address)": {
        "details": "Returns `true` if `account` has been granted `role`."
      },
      "renounceRole(bytes32,address)": {
        "details": "Revokes `role` from the calling account. Roles are often managed via {grantRole} and {revokeRole}: this function's purpose is to provide a mechanism for accounts to lose their privileges if they are compromised (such as when a trusted device is misplaced). If the calling account had been granted `role`, emits a {RoleRevoked} event. Requirements: - the caller must be `account`."
      },
      "revokeRole(bytes32,address)": {
        "details": "Revokes `role` from `account`. If `account` had been granted `role`, emits a {RoleRevoked} event. Requirements: - the caller must have ``role``'s admin role."
      },
      "supportsInterface(bytes4)": {
        "details": "See {IERC165-supportsInterface}."
      }
    },
    "version": 1
  },
  "userdoc": {
    "kind": "user",
    "methods": {},
    "version": 1
  },
  "storageLayout": {
    "storage": [
      {
        "astId": 108,
        "contract": "contracts/lxAMM/LXAMM.sol:LXAMM",
        "label": "_roles",
        "offset": 0,
        "slot": "0",
        "type": "t_mapping(t_bytes32,t_struct(RoleData)103_storage)"
      },
      {
        "astId": 1898,
        "contract": "contracts/lxAMM/LXAMM.sol:LXAMM",
        "label": "_depositedTokens",
        "offset": 0,
        "slot": "1",
        "type": "t_mapping(t_address,t_address)"
      }
    ],
    "types": {
      "t_address": {
        "encoding": "inplace",
        "label": "address",
        "numberOfBytes": "20"
      },
      "t_bool": {
        "encoding": "inplace",
        "label": "bool",
        "numberOfBytes": "1"
      },
      "t_bytes32": {
        "encoding": "inplace",
        "label": "bytes32",
        "numberOfBytes": "32"
      },
      "t_mapping(t_address,t_address)": {
        "encoding": "mapping",
        "key": "t_address",
        "label": "mapping(address => address)",
        "numberOfBytes": "32",
        "value": "t_address"
      },
      "t_mapping(t_address,t_bool)": {
        "encoding": "mapping",
        "key": "t_address",
        "label": "mapping(address => bool)",
        "numberOfBytes": "32",
        "value": "t_bool"
      },
      "t_mapping(t_bytes32,t_struct(RoleData)103_storage)": {
        "encoding": "mapping",
        "key": "t_bytes32",
        "label": "mapping(bytes32 => struct AccessControl.RoleData)",
        "numberOfBytes": "32",
        "value": "t_struct(RoleData)103_storage"
      },
      "t_struct(RoleData)103_storage": {
        "encoding": "inplace",
        "label": "struct AccessControl.RoleData",
        "members": [
          {
            "astId": 100,
            "contract": "contracts/lxAMM/LXAMM.sol:LXAMM",
            "label": "members",
            "offset": 0,
            "slot": "0",
            "type": "t_mapping(t_address,t_bool)"
          },
          {
            "astId": 102,
            "contract": "contracts/lxAMM/LXAMM.sol:LXAMM",
            "label": "adminRole",
            "offset": 0,
            "slot": "1",
            "type": "t_bytes32"
          }
        ],
        "numberOfBytes": "64"
      }
    }
  }
}